:100000000C9434000C943E000C943E000C943E0082
:100010000C943E000C943E000C943E000C943E0068
:100020000C943E000C943E000C943E000C943E0058
:100030000C943E000C943E000C943E000C943E0048
:100040000C943E000C943E000C943E000C943E0038
:100050000C943E000C943E000C943E000C943E0028
:100060000C943E000C943E0011241FBECFEFD8E04C
:10007000DEBFCDBF0E9458000C9416080C940000FF
:1000800000C0089500C008958115910581F02115E3
:10009000310569F01216130654F4E0E0F0E0DC01DB
:1000A000AE0FBF1F4C933196E217F307C4F30895C8
:1000B0002F923F924F925F926F927F928F929F9278
:1000C000AF92BF92CF92DF92FF920F931F9380E285
:1000D000F82E84B980E090E05C0181E099E04C0169
:1000E00003C0C4010E9414048F2D85B9C5018C0181
:1000F0009C01AC01BC010BC081700F5F1F4F2F4FE3
:100100003F4F4F4F5F4F6F4F7F4F8030B1F06501D2
:10011000C60139012A011B010E941404B101A20188
:10012000930181E00C3311052C053D054C055D055F
:100130006C057D0508F3812DDFCFC4010E941404F6
:1001400015B8C5018C019C01AC01BC010CC08170CB
:100150000F5F1F4F2F4F3F4F4F4F5F4F6F4F7F4FDF
:10016000803009F4BECF6501C60139012A011B01A7
:100170000E941404B101A201930181E00C33110526
:100180002C053D054C055D056C057D0500F3812DB5
:10019000DECF0F931F93AB018115910541F014162B
:1001A00015062CF48C01612D0E944400C8011F919A
:1001B0000F910895CF93DF93CDB7DEB72E970FB68B
:1001C000F894DEBF0FBECDBFFA0100C09E878D87B9
:1001D0007C876B87FA87E98798878F837E836D8317
:1001E0002F8138854D815E812417350729F000C0A5
:1001F000E115F10551F400C02E960FB6F894DEBF5C
:100200000FBECDBFDF91CF9108952F8138854D81ED
:100210005E81421753070CF030C02F8138854D8125
:100220005E81241B350B2E173F0708F026C000C047
:100230003197FC83EB8300C02B813C813323A2F0F8
:1002400000C0AF81B8852B813C81A20FB31FED8127
:10025000FE81E20FF31F20812C9300C0EB81FC8113
:100260003197FC83EB83E8CF2E960FB6F894DEBF70
:100270000FBECDBFDF91CF9108952D813E814F817B
:100280005885421753070CF033C02D813E814F81B2
:100290005885241B350B2E173F0708F029C000C0D6
:1002A00020E030E03A83298300C029813A812E176B
:1002B0003F07ACF400C04F81588529813A81420F35
:1002C000531FAD81BE81A20FB31F2C91DA012C9375
:1002D00000C0A981BA811196BA83A983E6CF2E9670
:1002E0000FB6F894DEBF0FBECDBFDF91CF9108955A
:1002F000AF010E9484012E960FB6F894DEBF0FBEA8
:10030000CDBFDF91CF910895CF93DF93CDB7DEB707
:100310002C970FB6F894DEBF0FBECDBF00C09C87F0
:100320008B877A87698758874F839E838D837C83E9
:100330006B838D819E812B813C818217930709F409
:1003400020C000C080E090E09A83898300C089814A
:100350009A8184179507A4F400C0AD81BE8189817C
:100360009A81A80FB91FEB81FC81E80FF91F8081EA
:100370008C9300C089819A8101969A838983E7CF03
:1003800000C08D819E812C960FB6F894DEBF0FBE03
:10039000CDBFDF91CF9108958F929F92AF92BF9280
:1003A000CF92DF92EF92FF920F931F93CF93DF9341
:1003B000CDB7DEB728970FB6F894DEBF0FBECDBF1E
:1003C000282F220F092F001F112D111FA801507077
:1003D00020E030E011E0013751052207330708F42F
:1003E000112D1170FA01E057F0407901D701A040BA
:1003F000B0409C012F77307080709078103009F0F9
:1004000020C0A0E0B0E0E1E046365105AA07BB07F6
:1004100008F0E12DE170E03009F0ACC1206841370F
:1004200009F448C0015707C0369527957795679519
:10043000413009F43FC0039541E00030A9F3412D5C
:10044000F3CF11E0EF38F1056701AE05BF0509F400
:10045000112D1170103009F049C0E0E0F0E041E0EA
:10046000611571052E073F0709F4412D4170403099
:1004700009F47FC150E241E0611575072E073F077F
:1004800008F0412D55274170507072957F7022956C
:1004900072272F707227329523273F7023273695B6
:1004A00027957795672F722F642B752B682B792BE7
:1004B0007C6761C1462F440F572F551F4070507203
:1004C000460F571F2A1F3B1F52955F7022955227D8
:1004D0002F705227329523273F7023273695279573
:1004E0005795652F722F682B792B45C17D014C01E3
:1004F000DB01A070B07111E01114B105C6018807CD
:10050000990709F0112D1170103009F020C0A0EEEC
:100510008FE790E011E061157A072807390708F0A6
:10052000112D11704F565040D601A040B0401030F0
:1005300009F47D01103009F4FA016050704E2F4F1C
:100540003F4F103009F49601103009F4B60140E035
:1005500050E061E0EF31F105E406F50608F0612DA9
:100560006170603009F0EDC080E090E19A8389838A
:1005700085EA94ED9C838B8388EE90E09E838D8347
:1005800058874F8329813A814B815C816D817E81BF
:100590008F81988559016A017B018C010E941C049E
:1005A0005C834B837E836D8398878F833A83298313
:1005B00029813A814B815C816D817E818F81988513
:1005C00059016A017B018C010E941C045C834B83EE
:1005D0007E836D8398878F833A83298329813A812B
:1005E0004B815C816D817E818F81988559016A0183
:1005F0007B018C010E941C045C834B837E836D8392
:1006000098878F833A83298329813A814B815C8142
:100610006D817E818F81988559016A017B018C01F2
:100620000E941C045C834B837E836D8398878F8339
:100630003A83298329813A814B815C816D817E8156
:100640008F81988559016A017B018C010E941C04ED
:100650005C834B837E836D8398878F833A83298362
:1006600029813A814B815C816D817E818F81988562
:1006700059016A017B018C010E941C045C834B833D
:100680007E836D8398878F833A83298329813A817A
:100690004B815C816D817E818F81988559016A01D2
:1006A0007B018C010E941C045C834B837E836D83E1
:1006B00098878F833A83298329813A814B815C8192
:1006C0006D817E818F81988559016A017B018C0142
:1006D0000E941C045C834B837E836D8398878F8389
:1006E0003A83298329813A814B815C816D817E81A6
:1006F0008F81988559016A017B018C010E941C043D
:100700005C834B837E836D8398878F833A832983B1
:1007100029813A814B815C816D817E818F819885B1
:1007200059016A017B018C010E941C047E836D8348
:1007300098878F833A8329835C834B83B4017C67DA
:100740001AC0EE0FEE0F9E2F812D72957F702295AD
:1007500072272F707227329523273F7023273695F3
:1007600027957795672F722F682B792B6829792920
:1007700002C09C67BC0128960FB6F894DEBF0FBE7E
:10078000CDBFDF91CF911F910F91FF90EF90DF9040
:10079000CF90BF90AF909F908F9008950E941804C3
:1007A0000E94CC0108950E94CC010895AF92BF929F
:1007B000CF92DF92EF92FF920F931F936B019B01F9
:1007C0003F7740E050E0942F5A019295907F329508
:1007D0009327307F932722953227207F3227220FBD
:1007E000331F991F832F722F612D40E857E7950122
:1007F0000E9434077B018C0140E857E495010E9478
:100800002F07882312F000681F67C6018070907858
:10081000802B912BB7011F910F91FF90EF90DF90EC
:10082000CF90BF90AF900895FC013197F1F70895F4
:10083000F4E0E4E70C94CE04DF93CF931F930F937F
:100840009A9DF02D219FF00D8B9DF00D8A9DE02D3E
:10085000F10D039FF00D029FE00DF11D4E9DE00D87
:10086000F11D5E9DF00D4F9DF00D7F936F93BF9234
:10087000AF925F934F93D5010E94F8048B01AC01B6
:10088000D7010E94F804EB01E80FF91FD6010E947E
:100890006B042F913F91D6010E94F804C60FD71F19
:1008A000E81FF91FAF91BF910E946B042F913F91F8
:1008B0000E94F804C60FD71FE81FF91FD6010E9437
:1008C000F804E60FF71F9801BE01CF010F911F91A9
:1008D000CF91DF9108950E94F804460F571FC81F5B
:1008E000D91F08F431960895DC01FC010E94C00470
:1008F000F82F82FD3CC081FD3FC018964D915D915F
:100900001A9741585F4F13F45FE74FEF4A3E8FEF5E
:10091000580794F14F3F51058CF4F7FD0FC0149622
:100920008D919D910D90BC91A02D242F38E014162F
:10093000150654F039E0341B20E006C02FEF38E0F4
:10094000A0E0B0E0CD0100C0BC01CD0104C096958F
:100950008795779567953A95D2F7E0E82E9F9001B5
:100960001124F0FD30688F77822B932B089560E07F
:1009700070E080EC9FEF089580E090E0BC01089566
:100980008081869541F4878188231AF4880B8170D1
:10099000089582E00895881F089513941394139482
:1009A000DF92D12C1124EF92FF927F01AAE0B0E0F8
:1009B000ECEDF4E00C9415052196DA94B2F08E017A
:1009C0000E94A405DD2011F44D855C85BE01CE0199
:1009D000F7010995DA9419F0CE010E943E05CDB7D2
:1009E000DEB72A96E7E00C942E05AB01BC01EFCFF1
:1009F000A29FB001B39FC001A39F700D811D112460
:100A0000911DB29F700D811D1124911D08952F928B
:100A10003F924F925F926F927F928F929F92AF928E
:100A2000BF92CF92DF92EF92FF920F931F93CF93DB
:100A3000DF93CDB7DEB7CA1BDB0B0FB6F894DEBF72
:100A40000FBECDBF09942A88398848885F846E8498
:100A50007D848C849B84AA84B984C884DF80EE80E2
:100A6000FD800C811B81AA81B981CE0FD11D0FB6EB
:100A7000F894DEBF0FBECDBFED0108950F931F9315
:100A8000CF93DF93FC010E94C004182F82FF05C0A2
:100A90000E94FE068FEF9F6752C021813281438101
:100AA000548165817681878190E0A22FAF7023FD0C
:100AB000AF5FA53018F0A4E00E94DD0690FB002790
:100AC00000F9A02FB0E00E94B90611FD10C0A1509E
:100AD000BC4F0084F185E02DAE0FBF1F23F4B0E8BA
:100AE000FB17AA0BB040AD3CEFEFBE071CF40E9411
:100AF000FE0625C0AF3FE7E0BE0714F417FF06C0AF
:100B00000E94FE06E3E0CFEFD7E00BC0ED01E3E08B
:100B10001A161B0634F0E4E0F0E0EA1BC0E0D0E077
:100B200000C0C295D295D07FDC27C07FDC2710FDA6
:100B3000D0680E2F0E9425068F7E8C2B9D2BDF9177
:100B4000CF911F910F9108950F931F93CF93DF9330
:100B5000E801F8010E94EA05DC0194E0B695A7954A
:100B60009A95E1F7FD01F770B3FB112710F98F702B
:100B700090E0A0E00E94F20651F4309731F1EF3F8F
:100B8000A7E0FA0719F4106818831FC006C0309751
:100B900041F0EF3F97E0F90711F0806104C084E075
:100BA00013C0E1E0F0E029833A834B835C836D83DB
:100BB0007E838F83EC5FF340E887F987CE010E9444
:100BC000910688818E7F812B8883DF91CF911F9141
:100BD0000F9108951082118212821382148215825D
:100BE00016821782108611860895A0E0B0E0EBEF20
:100BF000F5E00C940F0520FB2695022FFA01EB017E
:100C0000DC010E9451060E94250659016A017B0100
:100C10008C01FE010E945106FD013EF00E94E90692
:100C200009F058F40E94EA050BC00E94D40628F48B
:100C300001E00E94B9069068001300270E947B061D
:100C4000CDB7DEB7EAE00C942B0505FF05C09B018C
:100C5000AC0199278827BC0104FF05C09A01AB01AC
:100C6000BC01992788270F930F7011F00E94B906D5
:100C70000F91089505FF05C0CA01B9015527442702
:100C80009A0104FF05C0CB01BA01A901222733272D
:100C90000F930F7011F00E949E060F91089520810E
:100CA00000132227318142815381648175818681BD
:100CB00097810895102F992342F00E940E07A034C7
:100CC000A9F01A1B0A2F0E943A06022E2081A08545
:100CD000B185002717FD0095A10FB01F23F4002355
:100CE0002AF020680895A087B187089500240C9405
:100CF000FE0668940013E8940E945A0676F0000CF1
:100D0000311D58F4411D511D611D711D811D911D25
:100D100020F497951196A087B1870E940507802D32
:100D200008951F930F93FC010E9451060027108223
:100D30000E947906CF010F911F910895002E08306F
:100D400090F0982F872F762F652F542F432F322F17
:100D500022270850F4CF220F331F441F551F661F50
:100D6000771F881F991F0A95B2F7002D089597FDE8
:100D70001094002E083098F00850232F342F452F60
:100D8000562F672F782F892F912DF4CF1594979593
:100D900087957795679557954795379527950A9540
:100DA000AAF71124002D08952A0D3B1D4C1D5D1D31
:100DB0006E1D7F1D801F911F08950024A7FD0094C4
:100DC0002A0F301D401D501D601D701D801D901D7F
:100DD00008952A193B094C095D096E097F09800BAA
:100DE000910B08950024A7FD00942A1730054005B3
:100DF000500560057005800590050895991B990BB5
:100E0000880BBC01AC019C0108952083318342838F
:100E1000538364837583868397830895AA279923D0
:100E2000CAF0192AC1F4A85F182AA9F4A85F172AE2
:100E300091F4A85F162A79F4A85F152A61F4A85FD7
:100E4000142A49F4A85F132A31F4A85F122A19F46E
:100E5000A85F11240895110CE0F3A395FCCF0E9424
:100E6000A10708F48FEF08950E9447070C94DC0750
:100E70000E94CE0738F00E94D50720F0952311F08C
:100E80000C94C5070C94CB0711240C9410080E94F5
:100E9000ED0770F3959FC1F3950F50E0551F629FCA
:100EA000F001729FBB27F00DB11D639FAA27F00DC3
:100EB000B11DAA1F649F6627B00DA11D661F829FEA
:100EC0002227B00DA11D621F739FB00DA11D621FCF
:100ED000839FA00D611D221F749F3327A00D611DEC
:100EE000231F849F600D211D822F762F6A2F1124CE
:100EF0009F5750409AF0F1F088234AF0EE0FFF1F01
:100F0000BB1F661F771F881F91505040A9F79E3F57
:100F1000510580F00C94C5070C9410085F3FE4F372
:100F2000983ED4F3869577956795B795F795E795AD
:100F30009F5FC1F7FE2B880F911D9695879597F9B6
:100F40000895990F0008550FAA0BE0E8FEEF16165A
:100F50001706E807F907C0F012161306E407F507AD
:100F600098F0621B730B840B950B39F40A2661F021
:100F7000232B242B252B21F408950A2609F4A140C4
:100F8000A6958FEF811D811D089597F99F6780E8D1
:100F900070E060E008959FEF80EC089500240A94CB
:100FA0001616170618060906089500240A94121644
:100FB0001306140605060895092E0394000C11F477
:100FC000882352F0BB0F40F4BF2B11F460FF04C024
:100FD0006F5F7F4F8F4F9F4F089557FD9058440F7D
:100FE000551F59F05F3F71F04795880F97FB991F88
:100FF00061F09F3F79F08795089512161306140645
:10100000551FF2CF4695F1DF08C0161617061806D1
:10101000991FF1CF86957105610508940895E894AC
:10102000BB2766277727CB0197F90895F894FFCF60
:00000001FF
